:1000000074C000004BC1000097C0000095C0000004
:1000100093C0000091C000008FC000008DC00000A0
:100020008BC0000089C0000087C000007CC10000B8
:1000300083C0000081C000007FC000007DC00000C0
:1000400041C1000079C0000077C000006AC700000D
:1000500073C0000085C100006FC000006DC00000CB
:1000600033C6000069C000007E306D79335B5F707D
:100070007F7B771F0D3D4F476300000000000000AD
:100080000000000000000000000000000000000070
:1000900000000000800180007E306D79335B5F706E
:1000A0007F7B00000000000000771F4E3D4F47009F
:1000B000370600000E0000006700005B0000000033
:1000C000000000000000000800771F0D3D4F477B37
:1000D000370000000E00151D670005000F0000002E
:1000E000003B000000000000500B11241FBECFEFAA
:1000F000D8E0DEBFCDBF11E0A0E0B1E0E2EEFDE16F
:1001000002C005900D92A83BB107D9F712E0A8EB09
:10011000B1E001C01D92A737B107E1F710E0C5E7D4
:10012000D0E004C02197FE010E945A0CC437D107C9
:10013000C9F724D70C94EF0E63CF22E030E0FC0126
:10014000338322830895089508950895089580E0E3
:10015000089522E030E0FC0133832283108611866B
:10016000128613868091B80190E03EC5FC0182851D
:100170009385892B11F4808501C0818590E034C579
:10018000FC01161674F482859385892B29F48085E9
:10019000883CC0F48F5F0FC08185883C98F48F5FE6
:1001A00010C0662379F082859385892B31F4808590
:1001B000882341F08150808705C08185882311F014
:1001C00081508187CF01D2CFFC0116164CF4808577
:1001D00091858C3D2FEF920768F48C599F4F08C092
:1001E000662341F080859185009721F0845691091E
:1001F0009187808780859185F7C4CF93DF93EC0149
:10020000688589E090E00E94870B69858AE090E02C
:100210000E94870BDF91CF910895FC01608582E0F9
:1002200090E00C94870BFC016085718587E090E07D
:100230000C94950BFC016085718583E090E00C9433
:10024000950BFC016085718585E090E00C94950B21
:10025000CF93DF93EC0182E090E09B838A8387E079
:1002600090E00E94820B99878887BED4DF91CF915E
:100270000895CF93DF93EC0182E090E09B838A8323
:1002800083E090E00E94820B998788871A861B86FC
:100290001C861D86A9D4DF91CF9108951F920F92DD
:1002A0000FB60F9211248F9388274A99839588233C
:1002B00011F0439A01C043988F910F900FBE0F9099
:1002C0001F9018951F920F920FB60F9211248F93C3
:1002D0009F93AF93BF938091B9018F5F8093B901D2
:1002E0008091B901837099F48091BA019091BB011A
:1002F000A091BC01B091BD010196A11DB11D8093DB
:10030000BA019093BB01A093BC01B093BD0186B527
:100310008A5F86BDBF91AF919F918F910F900FBE65
:100320000F901F9018951F920F920FB60F921124E5
:100330008F93EF93FF93ECE7F0E08081807F8083E1
:10034000EAE7F0E080818860808380818064808338
:10035000FF91EF918F910F900FBE0F901F90189506
:100360001F920F920FB60F9211242F933F934F932A
:100370005F936F937F938F939F93AF93BF93EF930D
:10038000FF93CF93DF9300D000D0CDB7DEB720919D
:10039000780080917900422F50E060E070E09A018F
:1003A000AB01382BA2E1B3E10E94C70B6052714A46
:1003B0008740910920E137E240E050E00E94E50BE0
:1003C0002093B80189E090E029833A834B835C83D2
:1003D0000E947A0B90E0A0E0B0E029813A814B8145
:1003E0005C81281739074A075B0710F05C9A15C033
:1003F0008AE090E029833A834B835C830E947A0BE6
:1004000090E0A0E0B0E029813A814B815C818217C5
:100410009307A407B50708F05C980F900F900F9012
:100420000F90DF91CF91FF91EF91BF91AF919F918D
:100430008F917F916F915F914F913F912F910F908D
:100440000FBE0F901F901895A1E0B0E0EAE2F2E035
:100450000C94320C162F91E090930A0290E4909342
:100460000C0210920B0210920D02682F8EE092E0A7
:10047000798393D37981672F8EE092E08ED3612FB9
:100480008EE092E08AD3C3D32196E3E00C944E0C25
:10049000CF93DF93EC012885398516163CF4273E6F
:1004A00083E038076CF42F5F3F4F08C0662341F0AC
:1004B0002A318CEF380724F02150310939872887F9
:1004C00068857985765F85E0BFDF888599858CD3DF
:1004D000DF91CF910895CF9391E090930A0290E439
:1004E00090930C0210920B0210920D02682F8EE076
:1004F00092E053D38CD3809109028111FCCF81E02B
:1005000080930902809308029FEF90930702109254
:100510000602809305028093E4018091E4018068E3
:100520008093E4018091E301813061F41092E30152
:100530008091E4018093BB008091BC0083FDF8CFE3
:1005400085EC01C085EE8093BC008091090281306A
:10055000E1F380910602823018F48091060201C016
:1005600082E0A5EEB1E021EC31E0F9019E2F921B73
:10057000981718F49D919193F9CF1092E20180930E
:10058000E1018230F1F78EE092E0C4D2C82F8EE014
:1005900092E0C0D220E030E03C2F822B932BCF9111
:1005A000089583E090E00E94820BBC01765F85E0B5
:1005B0004BCFF7CF2A988EBD0DB407FEFDCF6EBD91
:1005C0000DB407FEFDCF2A9A0895CF93DF93FC0167
:1005D00022853385232B69F4EC0181E090E0938739
:1005E000828768E088E090E0E5DFCE01BFDD81E052
:1005F00001C080E0DF91CF910895CF93DF93EC01AC
:1006000082E090E09B838A8389E090E00E947A0BED
:1006100088878AE090E00E947A0B89871B861A8679
:1006200060E488E090E0C6DFCE01A0DDDF91CF91ED
:100630000895CF93DF93EC0182E090E09B838A835F
:100640000E947A0B888790E0CFD268858AE090E09C
:10065000B1DFDF91CF910895CF93DF93EC011616B0
:100660002CF488858F3048F48F5F06C0662329F00C
:100670008885882311F081508887888590E0B4D2DE
:1006800068858AE090E096DFDF91CF91089582E05F
:1006900090E00E947A0B682F8AE090E08BCFFC01FB
:1006A00022853385232B51F421E030E033872287E4
:1006B00068E088E090E07EDF81E0089580E00895C2
:1006C000A1E0B0E0E6E6F3E00C942F0C8B01892B5F
:1006D00011F021E001C025E0E22EF12C8E2D821BCD
:1006E000D801EC91EE23C1F0FF27E7FDF095E85922
:1006F000FF4F6491D80111968C918E3219F4606885
:100700000F5F1F4FC701298355DF0F5F1F4FBFEFDB
:10071000EB1AFB0A2981E2CF8701F82EFE188F2DF4
:10072000800F843030F460E0C80144DF0F5F1F4F5A
:10073000F6CF2196E6E00C944B0CFC01808591E00D
:1007400098279087911103C064E871E002C060E8C7
:1007500071E081E090E0B4CF22E030E0FC0133832F
:10076000228321E0208760E871E081E090E0A8CF5B
:10077000AAE0B0E0EEEBF3E00C942D0C7C01CB0191
:1007800068EE73E00E94D10B9B01D82EC92E4AE07F
:100790008E010F5F1F4FB801C90189D7F801019081
:1007A0000020E9F7CF92DF9247E851E05F934F9343
:1007B0009F01215031093F932F930E94600C1E82AC
:1007C000B801C7017DDF0F900F900F900F900F9031
:1007D0000F902A96E8E00C94490CCF93DF93EC013C
:1007E00082E090E09B838A8385E090E08BD79987B5
:1007F00088871B861A8660E488E090E0DBDE6885E7
:10080000798581E090E0B4DFDF91CF910895FC011C
:100810001616B4F48085918522853385232B19F033
:100820002AE030E002C028EE33E0820F931F8132CD
:100830002EE4920710F080E29EE49187808719C031
:100840006623B9F08285938520853185892B39F41B
:10085000233F83E0380748F0285E334008C02B3040
:10086000310518F02A50310902C02AE030E0318702
:1008700020876085718581E090E07ACF0F931F9388
:10088000CF93DF93892B11F091E001C095E080E0D8
:10089000C92FD82F8E010D5F1F4F0C171D072CF08D
:1008A00060E0CE0187DE2196F8CFDF91CF911F91D6
:1008B0000F910895CF92DF92EF92FF92CF93DF9343
:1008C000EC0184E008DE6C01E12CF12CB701A601FB
:1008D0004150510961097109483A51466105710554
:1008E00018F0CE01CBDF0EC0BC01CE0141DF85E0A8
:1008F00090E008D7A0E0B0E08C159D05AE05BF05DF
:1009000008F45D9ADF91CF91FF90EF90DF90CF9048
:10091000089568E082E090E0FAD660E070E083E05D
:1009200090E003D760E27EE485E090E0FED668EEDA
:1009300073E087E090E0F9D668E289E090E0E7D6DE
:100940006EE18AE090E0E3D665E57AEA80E090E047
:10095000ECC6FC018085882361F0DBDF9DE088E147
:100960000FB6F894A895809360000FBE9093600036
:10097000FFCF0895F8946091BA017091BB01809106
:10098000BC019091BD0178940895CF92DF92EF92CF
:10099000FF926B017C01EEDFC60ED71EE81EF91E2A
:1009A0008091BA019091BB01A091BC01B091BD01B1
:1009B0008C159D05AE05BF0598F3FF90EF90DF9075
:1009C000CF900895FC018281882341F05B9864EF09
:1009D00071E080E090E0D9DF299A07C05B9864EF6E
:1009E00071E080E090E0D1DF29985B9A64EF71E0DC
:1009F00080E090E0CACFCF92DF92EF92FF926B013E
:100A00007C01B8DF6C197D098E099F09FF90EF907A
:100A1000DF90CF900895CF93DF93FC012281338143
:100A200022303105A1F4EC016085718582859385C2
:100A3000E2DF693E73408105910548F09BDF6887DE
:100A400079878A879B878091B80190E0CDD0DF912C
:100A5000CF910895CF93DF93FC012281338122301F
:100A6000310599F4EC016285738584859585C3DF32
:100A7000693C71058105910540F080E090E01ADF46
:100A800079DF6A877B878C879D87DF91CF91089577
:100A900085ED8093BC008091BC0084FDFCCF10925A
:100AA0000902089540913202262F30E0240F311DB3
:100AB00021323105DCF4209109022430C9F4FC0113
:100AC00080E090E0861758F4309132022191DC01E9
:100AD000A05FBD4FA30FB11D2C930196F3CF809162
:100AE0003202680F6093320280E0089581E0089539
:100AF00082E008950895E091E2018091E101E81714
:100B000030F4F0E0EF53FE4F808190E008958FEFD6
:100B10009FEF08959091E2018091E101981750F4C0
:100B2000E92FF0E0EF53FE4F208130E09F5F90937C
:100B3000E20102C02FEF3FEFC90108958091E1016A
:100B400090E02091E201821B91090895A0E0B0E0BD
:100B5000EBEAF5E082C67C01262F972F8A0180916F
:100B60000A02882391F0C62FD72F6E01C40ED51E1E
:100B7000CC15DD0569F06991D701ED91FC910190EB
:100B8000F081E02DC7010995F3CF642F822F8ADF12
:100B9000C801CDB7DEB7E8E07CC6A1E0B0E0E2ED89
:100BA000F5E061C6698380910A02882389F080910B
:100BB0000D028032A0F480910B02E82FF0E0E95A98
:100BC000FD4F60838F5F80930B0280930D0204C002
:100BD00061E0CE01019666DF81E090E002C080E036
:100BE00090E02196E2E05BC6AAE0B0E0E9EFF5E034
:100BF0003AC64AE0BE016F5F7F4F59D5BE016F5FB5
:100C00007F4F81E090E05CDD2A96E2E048C62091CB
:100C10000D0290910C02213208F04AC08091090225
:100C20008111FCCF32E03093090231E030930802A9
:100C30003FEF309307021092060220930502A7E5CA
:100C4000B2E045EE51E0FA013E2F341B321718F4A2
:100C50003D913193F9CF1092E4012091E401990F75
:100C6000922B9093E4019091E301913061F4109202
:100C7000E3019091E4019093BB009091BC0093FD3F
:100C8000F8CF95EC01C095EE9093BC0090910902CD
:100C90009230E1F3909107029F3F79F08091070233
:100CA000803241F080910702803331F084E005C04A
:100CB00081E003C082E001C083E010920B02109239
:100CC0000D0210920A0208951F920F920FB60F9212
:100CD00011242F933F934F935F936F937F938F9341
:100CE0009F93AF93BF93EF93FF938091B900887F59
:100CF000803609F49CC068F5883209F45BC090F432
:100D0000803109F454C038F4882309F4F6C08830DF
:100D100009F44DC0F5C0883109F44CC0803209F4A3
:100D20005DC0EEC0803409F468C048F4803309F433
:100D300055C0883309F0E4C080930702D8C08035DD
:100D400009F44FC0883509F45DC0883409F0D8C073
:100D5000D6C0883909F4C7C0A8F4883709F467C039
:100D600038F4883609F463C0803709F460C0C8C01D
:100D7000883809F4B8C0803909F45FC0803809F0B8
:100D8000BFC05BC0803B09F486C038F4803A09F4E8
:100D900066C0883A09F47FC0B3C0803C09F4A7C09C
:100DA000883C09F4A4C0883B09F48AC0A9C080919A
:100DB000E40110C09091060280910502981770F529
:100DC000E091060281E08E0F80930602F0E0EB5185
:100DD000FE4F80818093BB0085EC86C08093070224
:100DE0008EC0E091060281E08E0F80930602809112
:100DF000BB00F0E0EB51FE4F8083909106028091A2
:100E000005026EC0E091060281E08E0F809306021B
:100E10008091BB00F0E0EB51FE4F8083809108028F
:100E200081116DC081E08093E30184EA61C083E0B9
:100E30008093090210925602CFCF809156028032E1
:100E400008F051C0E091560281E08E0F8093560267
:100E50008091BB00F0E0EA5CFD4F8083BDCF85EC64
:100E60008093BC001092090280915602803230F4C7
:100E7000E0915602F0E0EA5CFD4F1082609156026C
:100E800070E0E0913402F091350286E392E009953A
:100E90001092560235C084E080930902109233020A
:100EA00010923202E0913002F09131020995809166
:100EB0003202811105C081E080933202109210024B
:100EC000E091330281E08E0F80933302F0E0E05F27
:100ED000FD4F80818093BB0090913302809132025C
:100EE000981708F479CF85E88093BC0009C085EC99
:100EF0008093BC001092090203C010920702C8DD63
:100F0000FF91EF91BF91AF919F918F917F916F91E1
:100F10005F914F913F912F910F900FBE0F901F90B7
:100F200018951F920F920FB60F9211248F939F93D3
:100F3000EF93FF93E091BF01F091C001CF010196C3
:100F40009093C0018093BF0180818093C6008091FF
:100F5000BE0181508093BE018091BE01811105C008
:100F60008091C1008F7D8093C100FF91EF919F918F
:100F70008F910F900FBE0F901F901895AAEAB0E0C6
:100F8000E3ECF7E060C414BE88E10FB6F8948093F8
:100F90006000109260000FBEF89480E58CBD8DB5A6
:100FA00081608DBD8DB58EB580E090E0ABD3853589
:100FB0009A4A09F0AEDC519A5098589A229A2A9A85
:100FC000239A259A20985698289A5E9A3998419A99
:100FD00027982F9A26982E9A14BC82E085BD11E09E
:100FE00010936E0061E08FE090E0E4DA68EE73E069
:100FF00080E090E0CADC60E08FE090E0DBDA67E060
:101000008BE090E0D7DA60E089E090E0D3DA80E02E
:1010100090E034DC81E090E031DC82E090E06AD363
:10102000682F8AE090E0C6DA61E08CE090E0C2DAF6
:10103000539A559A5D9A219A5298109369001DBB54
:101040003B9A88274A998395882311F0439A01C0D7
:1010500043981092E2011092E10110920B0210925B
:101060000D021092090281E0809308021092E301C0
:101070008091B9008E7F8093B9008091B9008D7FF7
:101080008093B90080E28093B80085E48093BC002F
:1010900089E190E09093C5008093C4008091C100E5
:1010A00088608093C10086E08093C200549A80914A
:1010B0007C00806480937C0080917A0087688093B4
:1010C0007A00109280008DE080938100109285005C
:1010D0001092840084E89EE19093890080938800B8
:1010E00082E080936F0088271F99839591E081119A
:1010F00001C090E09B831A82198288271E998395EC
:1011000091E0811101C090E09B871A86198688279B
:101110003199839591E0811101C090E09B8B1A8AEF
:10112000198A198E1A8E1B8E1C8E1D8E1E8E1F8E76
:1011300018A219A21AA21EA21DA28DE891E098A7DA
:101140008FA3CE018F969AA789A784E691E09CA3EE
:101150008BA31AAA19AA80E991E09CAB8BABCE01B4
:10116000CD969EAB8DAB84E591E098AB8FA7219691
:101170001FAE1EAE219784E991E023969FAF8EAFFC
:101180002397DE01A95BBF4F2596BFAFAEAF259772
:1011900084E491E09EAF8DAF2B961FAE1EAE2B97D1
:1011A00088E991E02D969FAF8EAF2D97FE01E05B11
:1011B000FF4F2F96FFAFEEAF2F9784E391E011968C
:1011C0009C938E9364961FAE1EAE64978CE991E05B
:1011D00066969FAF8EAF669755966896BFAFAEAFD7
:1011E000689784E291E091838083A0961FAE1EAE43
:1011F000A09780EA91E0A2969FAF8EAFA2977896D3
:10120000A496FFAFEEAFA49784E191E08D939C93F9
:10121000AC961FAE1EAEAC9783EA91E0AE969FAF40
:101220008EAFAE97E0961FAE1EAEE09784E091E0E1
:1012300091838083E3961FAE1EAEE397CE0109969D
:10124000C1DB8B81882311F05D9A01C05D98789491
:101250006FEF75E480E0F8D8A4D9EE24E394F12C84
:1012600094E6492E512C612C712C2DEAC22E21E0DE
:10127000D22E8E0109581F4F38EAA32E31E0B32E2B
:101280004E0183E2880E911C88271F998395332491
:101290003394811101C0312C89819A81009719F012
:1012A000019769F021C08B813816F1F03C82FA82F7
:1012B000E98260DB6D837E838F83988715C06D81A3
:1012C0007E818F81988597DB653171058105910558
:1012D00058F01A8219823B828C81381205C0332063
:1012E00011F05D9A01C05D9888271E99839533247B
:1012F0003394811101C0312C89859A85009719F0AA
:10130000019769F01FC08B853816E1F03C86FA869C
:10131000E98630DB6D877E878F87988B13C06D855C
:101320007E858F85988967DB65317105810591051B
:1013300048F01A8619863B868C85381203C0CE0188
:10134000099640DB99271899939581E0911101C086
:1013500080E09A8D91110FC0998D91110CC0882356
:1013600051F099274E999395992319F091E09A8F0E
:1013700002C0AFEFAA8F898F87E090E0C3D11C0134
:10138000009789F16F8D78A189A19AA134DB910131
:1013900040E050E0621773078407950720F17DC095
:1013A0001F928F93BF92AF923F932F9389D2F801F0
:1013B00001900020E9F73197E01BF10B8091BE010D
:1013C0000F900F900F900F900F900F9081110BC006
:1013D0001093C0010093BF01E093BE018091C10052
:1013E00080628093C10088273199839531E0811113
:1013F00001C030E089899A89009719F0019769F056
:1014000026C08B89381719F13C8BFA8AE98AB2DA3F
:101410006D8B7E8B8F8B988F1AC06D897E898F899B
:10142000988DC755DF4F3883C95AD040E4DAC75585
:10143000DF4F3881C95AD04065317105810591056A
:1014400030F01A8A198A3B8B21E08C89381320E00E
:10145000E3968EAD9FADE397009739F4222309F40C
:1014600066C08B89811163C084C0DC01ED91FC9161
:101470000084F185E02DC655DF4F2883CA5AD0403D
:101480000995C655DF4F2881CA5AD040222309F456
:1014900086C08B89811183C0D6C06CDA6F8F78A328
:1014A00089A39AA382E017D89C0184E0C655DF4F38
:1014B0002883CA5AD040C755DF4F3883C95AD04015
:1014C0000AD89F938F93C655DF4F2881CA5AD040C0
:1014D000C755DF4F3881C95AD040ADE7B0E048D199
:1014E000A301920194D13F932F938AA18F9389A155
:1014F0008F9388A18F938F8D8F93DF92CF921F93BD
:101500000F93DED1F8010FB6F894DEBF0FBECDBF4A
:1015100080E09F019191992309F442CF892798E0B7
:1015200027E0880F08F482279A95D9F7F2CF6B8DC0
:101530007C8D8D8D9E8D5FDA683C710581059105EE
:1015400008F4A2CE82E00E946B029C01ADE7B0E0FD
:101550000FD1A30192015BD1B90180E090E008D9DD
:1015600081E090E0A7D906DA6B8F7C8F8D8F9E8FFC
:101570008BCEE3969FAE8EAEE397FEA2EDA26FA157
:1015800078A580E090E09CD881E090E077D9F2D90E
:10159000E7966CAF7DAF8EAF9FAFE79775CE6A8D44
:1015A0001A8E662381F1E396AEADBFADE397129636
:1015B0008D919C911397029749F4ED91FC911197AD
:1015C0000284F385E02DCD010995E1CF1696ED91CA
:1015D000FC911797309709F4F401E396FFAFEEAF53
:1015E000E397F382E2826481758180E090E068D8BD
:1015F00081E090E043D9BED9E7966CAF7DAF8EAF66
:101600009FAFE797C4CFE7966CAD7DAD8EAD9FAD34
:10161000E797F1D9613177428105910508F434CE1D
:10162000E3968EAD9FADE397009709F42DCEDC01D4
:10163000ED91FC910680F781E02D0995E3961FAEB0
:101640001EAEE39721CEE3968EAD9FADE397DC010E
:1016500012962D913C91139722303105C9F4DC018B
:10166000ED91FC910280F381E02D099581118FCFDE
:10167000E3968EAD9FADE397DC01ED91FC91048084
:10168000F581E02D0995E3961FAE1EAEE3977FCF5F
:10169000DC01ED91FC910190F081E02D099577CF6F
:1016A00084E791E090930F0280930E020895BB2788
:1016B0004A3031F4992322F4BDE2909581959F4FF1
:1016C00001C0BB27FB015527AA27880F991FAA1F16
:1016D000A41710F0A41B83955051B9F7A05DAA334D
:1016E00008F0A95DA193009779F7B111B193119218
:1016F000CB011EC0F999FECF92BD81BDF89A992702
:1017000080B50895A8E1B0E042E050E023C0262F64
:10171000F999FECF1FBA92BD81BD20BD0FB6F894D6
:10172000FA9AF99A0FBE01960895F1DF272FF0CFAC
:10173000DC01FC01672F71917723E1F7329704C038
:101740007C916D9370836291AE17BF07C8F30895C3
:10175000DC01CB01FC01F999FECF06C0F2BDE1BD71
:10176000F89A319600B40D9241505040B8F7089560
:10177000A29FB001B39FC001A39F700D811D1124D2
:10178000911DB29F700D811D1124911D0895F0DFF0
:10179000A59F900DB49F900DA49F800D911D1124C5
:1017A0000895AA1BBB1B51E107C0AA1FBB1FA617A8
:1017B000B70710F0A61BB70B881F991F5A95A9F7FA
:1017C00080959095BC01CD010895A1E21A2EAA1B27
:1017D000BB1BFD010DC0AA1FBB1FEE1FFF1FA217E1
:1017E000B307E407F50720F0A21BB30BE40BF50BDE
:1017F000661F771F881F991F1A9469F76095709567
:10180000809590959B01AC01BD01CF010895052EF7
:1018100097FB16F400940FD057FD05D0D6DF07FCD8
:1018200002D046F408C050954095309521953F4F21
:101830004F4F5F4F089590958095709561957F4FBC
:101840008F4F9F4F08952F923F924F925F926F92CA
:101850007F928F929F92AF92BF92CF92DF92EF9240
:10186000FF920F931F93CF93DF93CDB7DEB7CA1BC1
:10187000DB0B0FB6F894DEBF0FBECDBF09942A88EC
:10188000398848885F846E847D848C849B84AA8494
:10189000B984C884DF80EE80FD800C811B81AA8121
:1018A000B981CE0FD11D0FB6F894DEBF0FBECDBFEC
:1018B000ED010895EE0FFF1F0590F491E02D0994BE
:1018C000AEE0B0E0E5E6FCE0CCCF0D891E8986E015
:1018D0008C831A8309838FEF9FE79E838D83AE01EC
:1018E000475E5F4F6F89788DCE01019609D02F81B9
:1018F0003885F801E20FF31F10822E96E4E0CDCF79
:10190000ACE0B0E0E5E8FCE09ECF7C016B018A0131
:10191000FC0117821682838181FFB0C1CE0101963E
:101920004C01F7019381F60193FD859193FF81911D
:101930006F01882309F49EC1853239F493FD8591A6
:1019400093FF81916F01853221F4B70190E0B1D10D
:10195000E8CF512C312C20E02032A0F48B3269F0FA
:1019600030F4803259F0833269F420612CC08D321A
:1019700039F0803339F4216026C02260246023C00E
:10198000286021C027FD27C030ED380F3A3078F4A9
:1019900026FF06C0FAE05F9E300D1124532E13C0BF
:1019A0008AE0389E300D1124332E20620CC08E3216
:1019B00021F426FD5FC1206406C08C3611F4206836
:1019C00002C0883641F4F60193FD859193FF819121
:1019D0006F018111C1CF982F9F7D9554933028F4CA
:1019E0000C5F1F4FFFE3F9830DC0833631F083375F
:1019F00071F0833509F057C021C0F80180818983D7
:101A00000E5F1F4F44244394512C540114C03801DD
:101A1000F2E06F0E711CF801A080B18026FF03C0B8
:101A2000652D70E002C06FEF7FEFC5012C8736D1C6
:101A30002C0183012C852F77222E16C03801F2E06D
:101A40006F0E711CF801A080B18026FF03C0652DC8
:101A500070E002C06FEF7FEFC5012C8714D12C011D
:101A60002C852068222E830123FC19C0832D90E051
:101A700048165906A0F4B70180E290E01AD13A94D2
:101A8000F5CFF50127FC859127FE81915F01B70114
:101A900090E00FD131103A94F1E04F1A51084114FF
:101AA000510479F7DEC0843611F0893631F5F8013A
:101AB00027FF07C060817181828193810C5F1F4F76
:101AC00008C060817181882777FD8095982F0E5F0F
:101AD0001F4F2F76722E97FF09C0909580957095B5
:101AE00061957F4F8F4F9F4F2068722E2AE030E024
:101AF000A40117D1A82EA81843C0853729F42F7E3A
:101B0000B22E2AE030E025C0F22FF97FBF2E8F36AB
:101B1000C1F018F4883579F0ADC0803719F08837F6
:101B200021F0A8C02F2F2061B22EB4FE0DC08B2D46
:101B30008460B82E09C024FF0AC09F2F9660B92E7A
:101B400006C028E030E005C020E130E002C020E11E
:101B500032E0F801B7FE07C0608171818281938114
:101B60000C5F1F4F06C06081718180E090E00E5FC6
:101B70001F4FA401D6D0A82EA818FB2DFF777F2ECB
:101B800076FE0BC0372D3E7FA51450F474FE0AC0BC
:101B900072FC08C0372D3E7E05C0BA2C372D03C01D
:101BA000BA2C01C0B52C34FF0DC0FE01EA0DF11DA9
:101BB0008081803311F4397E09C032FF06C0B394AE
:101BC000B39404C0832F867809F0B39433FD12C018
:101BD00030FF06C05A2CB31418F4530C5B18B32C06
:101BE000B31460F4B70180E290E03C8762D0B39414
:101BF0003C85F6CFB31410F43B1801C0312C34FFF0
:101C000011C0B70180E390E03C8753D03C8532FFA0
:101C100016C031FD03C088E790E002C088E590E07F
:101C2000B7010CC0832F867851F031FF02C08BE2E0
:101C300001C080E237FD8DE2B70190E03AD0A514F3
:101C400030F4B70180E390E034D05A94F8CFAA94EE
:101C5000F401EA0DF11D8081B70190E02AD0A110B6
:101C6000F6CF332009F45DCEB70180E290E021D0B9
:101C70003A94F7CFF7018681978102C08FEF9FEFEB
:101C80002C96E2E1FCCDFC01059061507040011002
:101C9000D8F7809590958E0F9F1F0895FC01615095
:101CA000704001900110D8F7809590958E0F9F1F7E
:101CB00008950F931F93CF93DF93FB01238121FDA1
:101CC00003C08FEF9FEF28C022FF16C046815781C7
:101CD000248135814217530744F4A081B1819D01CD
:101CE0002F5F3F4F318320838C93268137812F5F75
:101CF0003F4F3783268310C0EB01092F182F008434
:101D0000F185E02D0995892BE1F68E819F81019661
:101D10009F838E83812F902FDF91CF911F910F9101
:101D20000895FA01AA27283051F1203181F1E89471
:101D30006F936E7F6E5F7F4F8F4F9F4FAF4FB1E0BE
:101D40003ED0B4E03CD0670F781F891F9A1FA11DB9
:101D5000680F791F8A1F911DA11D6A0F711D811DBA
:101D6000911DA11D20D009F468943F912AE0269F7F
:101D700011243019305D3193DEF6CF010895462FDE
:101D80004770405D4193B3E00FD0C9F7F6CF462FBF
:101D90004F70405D4A3318F0495D31FD4052419328
:101DA00002D0A9F7EACFB4E0A695979587957795E5
:101DB0006795BA95C9F700976105710508959B016C
:101DC000AC010A2E06945795479537952795BA95F5
:101DD000C9F7620F731F841F951FA01D0895F89403
:021DE000FFCF33
:101DE20000000000AC03A700A904A500A4009D0305
:101DF20000000000A900A700A600A5000B05A30093
:101E020000000000FD02E502FD00A500A400C000E4
:101E1200000000001903A7000D014703A4002C03D2
:101E2200000000002801A7001301A500A400E4009F
:101E3200000000003901A7001A01D9022A05480250
:101E420000000000ED034F032101A500A4000704D8
:101E520000000000CD05A6059E058A057B057A05D2
:101E6200794553006E6F002E2530336400494C00D3
:101E720043414C004C6F67004C45440046416E00A4
:101E8200104300725345740025750D0A00256C75C8
:081E92007C25757C25757C00A0
:00000001FF
